{
  "_format": "hh-sol-artifact-1",
  "contractName": "SmartRegister",
  "sourceName": "contracts/Smart Register.sol",
  "abi": [
    {
      "inputs": [],
      "stateMutability": "nonpayable",
      "type": "constructor"
    },
    {
      "anonymous": false,
      "inputs": [
        {
          "indexed": true,
          "internalType": "uint256",
          "name": "id",
          "type": "uint256"
        },
        {
          "indexed": true,
          "internalType": "address",
          "name": "owner",
          "type": "address"
        },
        {
          "indexed": false,
          "internalType": "string",
          "name": "title",
          "type": "string"
        },
        {
          "indexed": false,
          "internalType": "string",
          "name": "fileHash",
          "type": "string"
        },
        {
          "indexed": false,
          "internalType": "uint256",
          "name": "timestamp",
          "type": "uint256"
        }
      ],
      "name": "WorkRegistered",
      "type": "event"
    },
    {
      "inputs": [
        {
          "internalType": "uint256",
          "name": "workId",
          "type": "uint256"
        }
      ],
      "name": "getWork",
      "outputs": [
        {
          "internalType": "uint256",
          "name": "id",
          "type": "uint256"
        },
        {
          "internalType": "address",
          "name": "workOwner",
          "type": "address"
        },
        {
          "internalType": "string",
          "name": "title",
          "type": "string"
        },
        {
          "internalType": "string",
          "name": "description",
          "type": "string"
        },
        {
          "internalType": "string",
          "name": "fileHash",
          "type": "string"
        },
        {
          "internalType": "uint256",
          "name": "timestamp",
          "type": "uint256"
        },
        {
          "internalType": "bool",
          "name": "isRegistered",
          "type": "bool"
        }
      ],
      "stateMutability": "view",
      "type": "function"
    },
    {
      "inputs": [
        {
          "internalType": "string",
          "name": "searchHash",
          "type": "string"
        }
      ],
      "name": "getWorkByHash",
      "outputs": [
        {
          "internalType": "uint256",
          "name": "id",
          "type": "uint256"
        },
        {
          "internalType": "address",
          "name": "workOwner",
          "type": "address"
        },
        {
          "internalType": "string",
          "name": "title",
          "type": "string"
        },
        {
          "internalType": "string",
          "name": "description",
          "type": "string"
        },
        {
          "internalType": "string",
          "name": "fileHash",
          "type": "string"
        },
        {
          "internalType": "uint256",
          "name": "timestamp",
          "type": "uint256"
        },
        {
          "internalType": "bool",
          "name": "isRegistered",
          "type": "bool"
        }
      ],
      "stateMutability": "view",
      "type": "function"
    },
    {
      "inputs": [
        {
          "internalType": "address",
          "name": "workOwner",
          "type": "address"
        }
      ],
      "name": "getWorksByOwner",
      "outputs": [
        {
          "internalType": "uint256[]",
          "name": "",
          "type": "uint256[]"
        }
      ],
      "stateMutability": "view",
      "type": "function"
    },
    {
      "inputs": [],
      "name": "owner",
      "outputs": [
        {
          "internalType": "address",
          "name": "",
          "type": "address"
        }
      ],
      "stateMutability": "view",
      "type": "function"
    },
    {
      "inputs": [
        {
          "internalType": "string",
          "name": "title",
          "type": "string"
        },
        {
          "internalType": "string",
          "name": "description",
          "type": "string"
        },
        {
          "internalType": "string",
          "name": "fileHash",
          "type": "string"
        }
      ],
      "name": "registerWork",
      "outputs": [
        {
          "internalType": "uint256",
          "name": "",
          "type": "uint256"
        }
      ],
      "stateMutability": "nonpayable",
      "type": "function"
    }
  ],
  "bytecode": "0x6080604052348015600f57600080fd5b50336000806101000a81548173ffffffffffffffffffffffffffffffffffffffff021916908373ffffffffffffffffffffffffffffffffffffffff1602179055506000600181905550611975806100676000396000f3fe608060405234801561001057600080fd5b50600436106100575760003560e01c8063573d21f31461005c5780636006838f146100925780638da5cb5b146100c257806392cb4f0d146100e0578063f8b9c00714610116575b600080fd5b61007660048036038101906100719190610cc1565b610146565b6040516100899796959493929190610de9565b60405180910390f35b6100ac60048036038101906100a79190610fa2565b61042f565b6040516100b99190611049565b60405180910390f35b6100ca6106f7565b6040516100d79190611064565b60405180910390f35b6100fa60048036038101906100f5919061107f565b61071b565b60405161010d9796959493929190610de9565b60405180910390f35b610130600480360381019061012b91906110f4565b610a91565b60405161013d91906111df565b60405180910390f35b60008060608060606000806000600260008a81526020019081526020016000206040518060e0016040529081600082015481526020016001820160009054906101000a900473ffffffffffffffffffffffffffffffffffffffff1673ffffffffffffffffffffffffffffffffffffffff1673ffffffffffffffffffffffffffffffffffffffff1681526020016002820180546101e190611230565b80601f016020809104026020016040519081016040528092919081815260200182805461020d90611230565b801561025a5780601f1061022f5761010080835404028352916020019161025a565b820191906000526020600020905b81548152906001019060200180831161023d57829003601f168201915b5050505050815260200160038201805461027390611230565b80601f016020809104026020016040519081016040528092919081815260200182805461029f90611230565b80156102ec5780601f106102c1576101008083540402835291602001916102ec565b820191906000526020600020905b8154815290600101906020018083116102cf57829003601f168201915b5050505050815260200160048201805461030590611230565b80601f016020809104026020016040519081016040528092919081815260200182805461033190611230565b801561037e5780601f106103535761010080835404028352916020019161037e565b820191906000526020600020905b81548152906001019060200180831161036157829003601f168201915b50505050508152602001600582015481526020016006820160009054906101000a900460ff16151515158152505090508060c001516103f2576040517f08c379a00000000000000000000000000000000000000000000000000000000081526004016103e9906112ad565b60405180910390fd5b806000015181602001518260400151836060015184608001518560a001518660c00151975097509750975097509750975050919395979092949650565b600080845111610474576040517f08c379a000000000000000000000000000000000000000000000000000000000815260040161046b90611319565b60405180910390fd5b60008251116104b8576040517f08c379a00000000000000000000000000000000000000000000000000000000081526004016104af90611385565b60405180910390fd5b6003826040516104c891906113e1565b908152602001604051809103902060009054906101000a900460ff1615610524576040517f08c379a000000000000000000000000000000000000000000000000000000000815260040161051b9061146a565b60405180910390fd5b60016000815480929190610537906114b9565b91905055506040518060e0016040528060015481526020013373ffffffffffffffffffffffffffffffffffffffff168152602001858152602001848152602001838152602001428152602001600115158152506002600060015481526020019081526020016000206000820151816000015560208201518160010160006101000a81548173ffffffffffffffffffffffffffffffffffffffff021916908373ffffffffffffffffffffffffffffffffffffffff160217905550604082015181600201908161060591906116ad565b50606082015181600301908161061b91906116ad565b50608082015181600401908161063191906116ad565b5060a0820151816005015560c08201518160060160006101000a81548160ff021916908315150217905550905050600160038360405161067191906113e1565b908152602001604051809103902060006101000a81548160ff0219169083151502179055503373ffffffffffffffffffffffffffffffffffffffff166001547f691a83fa6f70dcf5e0a5d7cfe87caccd6725ac7cb7f1e24ede39c847c56391858685426040516106e39392919061177f565b60405180910390a360015490509392505050565b60008054906101000a900473ffffffffffffffffffffffffffffffffffffffff1681565b600080606080606060008060038860405161073691906113e1565b908152602001604051809103902060009054906101000a900460ff16610791576040517f08c379a000000000000000000000000000000000000000000000000000000000815260040161078890611836565b60405180910390fd5b600080600190505b60015481116107f5578980519060200120600260008381526020019081526020016000206004016040516107cd91906118f9565b6040518091039020036107e2578091506107f5565b80806107ed906114b9565b915050610799565b506000600260008381526020019081526020016000206040518060e0016040529081600082015481526020016001820160009054906101000a900473ffffffffffffffffffffffffffffffffffffffff1673ffffffffffffffffffffffffffffffffffffffff1673ffffffffffffffffffffffffffffffffffffffff16815260200160028201805461088690611230565b80601f01602080910402602001604051908101604052809291908181526020018280546108b290611230565b80156108ff5780601f106108d4576101008083540402835291602001916108ff565b820191906000526020600020905b8154815290600101906020018083116108e257829003601f168201915b5050505050815260200160038201805461091890611230565b80601f016020809104026020016040519081016040528092919081815260200182805461094490611230565b80156109915780601f1061096657610100808354040283529160200191610991565b820191906000526020600020905b81548152906001019060200180831161097457829003601f168201915b505050505081526020016004820180546109aa90611230565b80601f01602080910402602001604051908101604052809291908181526020018280546109d690611230565b8015610a235780601f106109f857610100808354040283529160200191610a23565b820191906000526020600020905b815481529060010190602001808311610a0657829003601f168201915b50505050508152602001600582015481526020016006820160009054906101000a900460ff1615151515815250509050806000015181602001518260400151836060015184608001518560a001518660c0015198509850985098509850985098505050919395979092949650565b6060600060015467ffffffffffffffff811115610ab157610ab0610e77565b5b604051908082528060200260200182016040528015610adf5781602001602082028036833780820191505090505b509050600080600190505b6001548111610bcb578473ffffffffffffffffffffffffffffffffffffffff166002600083815260200190815260200160002060010160009054906101000a900473ffffffffffffffffffffffffffffffffffffffff1673ffffffffffffffffffffffffffffffffffffffff16148015610b8457506002600082815260200190815260200160002060060160009054906101000a900460ff165b15610bb85780838381518110610b9d57610b9c611910565b5b6020026020010181815250508180610bb4906114b9565b9250505b8080610bc3906114b9565b915050610aea565b5060008167ffffffffffffffff811115610be857610be7610e77565b5b604051908082528060200260200182016040528015610c165781602001602082028036833780820191505090505b50905060005b82811015610c6b57838181518110610c3757610c36611910565b5b6020026020010151828281518110610c5257610c51611910565b5b6020026020010181815250508080600101915050610c1c565b50809350505050919050565b6000604051905090565b600080fd5b600080fd5b6000819050919050565b610c9e81610c8b565b8114610ca957600080fd5b50565b600081359050610cbb81610c95565b92915050565b600060208284031215610cd757610cd6610c81565b5b6000610ce584828501610cac565b91505092915050565b610cf781610c8b565b82525050565b600073ffffffffffffffffffffffffffffffffffffffff82169050919050565b6000610d2882610cfd565b9050919050565b610d3881610d1d565b82525050565b600081519050919050565b600082825260208201905092915050565b60005b83811015610d78578082015181840152602081019050610d5d565b60008484015250505050565b6000601f19601f8301169050919050565b6000610da082610d3e565b610daa8185610d49565b9350610dba818560208601610d5a565b610dc381610d84565b840191505092915050565b60008115159050919050565b610de381610dce565b82525050565b600060e082019050610dfe600083018a610cee565b610e0b6020830189610d2f565b8181036040830152610e1d8188610d95565b90508181036060830152610e318187610d95565b90508181036080830152610e458186610d95565b9050610e5460a0830185610cee565b610e6160c0830184610dda565b98975050505050505050565b600080fd5b600080fd5b7f4e487b7100000000000000000000000000000000000000000000000000000000600052604160045260246000fd5b610eaf82610d84565b810181811067ffffffffffffffff82111715610ece57610ecd610e77565b5b80604052505050565b6000610ee1610c77565b9050610eed8282610ea6565b919050565b600067ffffffffffffffff821115610f0d57610f0c610e77565b5b610f1682610d84565b9050602081019050919050565b82818337600083830152505050565b6000610f45610f4084610ef2565b610ed7565b905082815260208101848484011115610f6157610f60610e72565b5b610f6c848285610f23565b509392505050565b600082601f830112610f8957610f88610e6d565b5b8135610f99848260208601610f32565b91505092915050565b600080600060608486031215610fbb57610fba610c81565b5b600084013567ffffffffffffffff811115610fd957610fd8610c86565b5b610fe586828701610f74565b935050602084013567ffffffffffffffff81111561100657611005610c86565b5b61101286828701610f74565b925050604084013567ffffffffffffffff81111561103357611032610c86565b5b61103f86828701610f74565b9150509250925092565b600060208201905061105e6000830184610cee565b92915050565b60006020820190506110796000830184610d2f565b92915050565b60006020828403121561109557611094610c81565b5b600082013567ffffffffffffffff8111156110b3576110b2610c86565b5b6110bf84828501610f74565b91505092915050565b6110d181610d1d565b81146110dc57600080fd5b50565b6000813590506110ee816110c8565b92915050565b60006020828403121561110a57611109610c81565b5b6000611118848285016110df565b91505092915050565b600081519050919050565b600082825260208201905092915050565b6000819050602082019050919050565b61115681610c8b565b82525050565b6000611168838361114d565b60208301905092915050565b6000602082019050919050565b600061118c82611121565b611196818561112c565b93506111a18361113d565b8060005b838110156111d25781516111b9888261115c565b97506111c483611174565b9250506001810190506111a5565b5085935050505092915050565b600060208201905081810360008301526111f98184611181565b905092915050565b7f4e487b7100000000000000000000000000000000000000000000000000000000600052602260045260246000fd5b6000600282049050600182168061124857607f821691505b60208210810361125b5761125a611201565b5b50919050565b7f576f726b20646f6573206e6f7420657869737400000000000000000000000000600082015250565b6000611297601383610d49565b91506112a282611261565b602082019050919050565b600060208201905081810360008301526112c68161128a565b9050919050565b7f5469746c652063616e6e6f7420626520656d7074790000000000000000000000600082015250565b6000611303601583610d49565b915061130e826112cd565b602082019050919050565b60006020820190508181036000830152611332816112f6565b9050919050565b7f46696c6520686173682063616e6e6f7420626520656d70747900000000000000600082015250565b600061136f601983610d49565b915061137a82611339565b602082019050919050565b6000602082019050818103600083015261139e81611362565b9050919050565b600081905092915050565b60006113bb82610d3e565b6113c581856113a5565b93506113d5818560208601610d5a565b80840191505092915050565b60006113ed82846113b0565b915081905092915050565b7f576f726b20776974682074686973206861736820616c7265616479206578697360008201527f7473000000000000000000000000000000000000000000000000000000000000602082015250565b6000611454602283610d49565b915061145f826113f8565b604082019050919050565b6000602082019050818103600083015261148381611447565b9050919050565b7f4e487b7100000000000000000000000000000000000000000000000000000000600052601160045260246000fd5b60006114c482610c8b565b91507fffffffffffffffffffffffffffffffffffffffffffffffffffffffffffffffff82036114f6576114f561148a565b5b600182019050919050565b60008190508160005260206000209050919050565b60006020601f8301049050919050565b600082821b905092915050565b6000600883026115637fffffffffffffffffffffffffffffffffffffffffffffffffffffffffffffffff82611526565b61156d8683611526565b95508019841693508086168417925050509392505050565b6000819050919050565b60006115aa6115a56115a084610c8b565b611585565b610c8b565b9050919050565b6000819050919050565b6115c48361158f565b6115d86115d0826115b1565b848454611533565b825550505050565b600090565b6115ed6115e0565b6115f88184846115bb565b505050565b5b8181101561161c576116116000826115e5565b6001810190506115fe565b5050565b601f8211156116615761163281611501565b61163b84611516565b8101602085101561164a578190505b61165e61165685611516565b8301826115fd565b50505b505050565b600082821c905092915050565b600061168460001984600802611666565b1980831691505092915050565b600061169d8383611673565b9150826002028217905092915050565b6116b682610d3e565b67ffffffffffffffff8111156116cf576116ce610e77565b5b6116d98254611230565b6116e4828285611620565b600060209050601f8311600181146117175760008415611705578287015190505b61170f8582611691565b865550611777565b601f19841661172586611501565b60005b8281101561174d57848901518255600182019150602085019450602081019050611728565b8683101561176a5784890151611766601f891682611673565b8355505b6001600288020188555050505b505050505050565b600060608201905081810360008301526117998186610d95565b905081810360208301526117ad8185610d95565b90506117bc6040830184610cee565b949350505050565b7f576f726b20776974682074686973206861736820646f6573206e6f742065786960008201527f7374000000000000000000000000000000000000000000000000000000000000602082015250565b6000611820602283610d49565b915061182b826117c4565b604082019050919050565b6000602082019050818103600083015261184f81611813565b9050919050565b600081905092915050565b60008190508160005260206000209050919050565b6000815461188381611230565b61188d8186611856565b945060018216600081146118a857600181146118bd576118f0565b60ff19831686528115158202860193506118f0565b6118c685611861565b60005b838110156118e8578154818901526001820191506020810190506118c9565b838801955050505b50505092915050565b60006119058284611876565b915081905092915050565b7f4e487b7100000000000000000000000000000000000000000000000000000000600052603260045260246000fdfea2646970667358221220451d0e0c0735dd816429cf1ba3f9477c005f5869f8ee6429fa4759e39d8a960364736f6c634300081b0033",
  "linkReferences": {},
  "deployedLinkReferences": {}
}